8=FIX.4.4|9=107|35=j|49=FAUXCHANGE|56=CLIENT|34=19|52=20240329-12:00:00.000|45=42|372=AE|380=3|58=unsupported message type|10=205|
