8=FIX.4.4|9=113|35=A|49=CLIENT|56=FAUXCHANGE|34=1|52=20240329-12:00:00.000|98=0|108=30|553=trader-1|554=REDACTED-TEST-CREDENTIAL|10=245|
8=FIX.4.4|9=73|35=1|49=FAUXCHANGE|56=CLIENT|34=1|52=20240329-12:00:00.000|112=PING-CONF|10=172|
8=FIX.4.4|9=73|35=0|49=CLIENT|56=FAUXCHANGE|34=2|52=20240329-12:00:00.000|112=PING-CONF|10=172|
8=FIX.4.4|9=151|35=D|49=CLIENT|56=FAUXCHANGE|34=3|52=20240329-12:00:00.000|11=conf-rest|55=BTC-20240329-50000-C|54=2|60=20240329-12:00:00.000|40=2|44=500.00|38=5|59=1|10=143|
8=FIX.4.4|9=185|35=8|49=FAUXCHANGE|56=CLIENT|34=2|52=20240329-12:00:00.000|37=run-1:BTC:1:0|17=run-1:BTC:1:2|150=0|39=0|55=BTC-20240329-50000-C|54=2|151=5|14=0|44=500.00|527=1|60=20240329-12:00:00.000|10=023|
8=FIX.4.4|9=134|35=G|49=CLIENT|56=FAUXCHANGE|34=4|52=20240329-12:00:00.000|41=conf-rest|11=conf-repl|55=BTC-20240329-50000-C|54=2|40=2|44=505.00|38=5|10=041|
8=FIX.4.4|9=185|35=8|49=FAUXCHANGE|56=CLIENT|34=3|52=20240329-12:00:00.000|37=run-1:BTC:1:0|17=run-1:BTC:1:3|150=5|39=5|55=BTC-20240329-50000-C|54=2|151=5|14=0|44=505.00|527=2|60=20240329-12:00:00.000|10=041|
8=FIX.4.4|9=113|35=F|49=CLIENT|56=FAUXCHANGE|34=5|52=20240329-12:00:00.000|41=conf-repl|11=conf-cxl|55=BTC-20240329-50000-C|54=2|10=047|
8=FIX.4.4|9=175|35=8|49=FAUXCHANGE|56=CLIENT|34=4|52=20240329-12:00:00.000|37=run-1:BTC:1:0|17=run-1:BTC:1:4|150=4|39=4|55=BTC-20240329-50000-C|54=2|151=0|14=0|527=3|60=20240329-12:00:00.000|10=086|
8=FIX.4.4|9=132|35=V|49=CLIENT|56=FAUXCHANGE|34=6|52=20240329-12:00:00.000|262=MDR-CONF|263=1|264=0|267=2|269=0|269=1|146=1|55=BTC-20240329-50000-C|10=223|
8=FIX.4.4|9=130|35=W|49=FAUXCHANGE|56=CLIENT|34=5|52=20240329-12:00:00.000|262=MDR-CONF|55=BTC-20240329-50000-C|83=1|268=1|269=1|270=505.00|271=5|10=150|
8=FIX.4.4|9=136|35=X|49=FAUXCHANGE|56=CLIENT|34=6|52=20240329-12:00:00.000|262=MDR-CONF|83=2|268=1|279=1|269=1|55=BTC-20240329-50000-C|270=505.00|271=8|10=179|
8=FIX.4.4|9=68|35=2|49=CLIENT|56=FAUXCHANGE|34=7|52=20240329-12:00:00.000|7=3|16=0|10=225|
8=FIX.4.4|9=70|35=4|49=FAUXCHANGE|56=CLIENT|34=7|52=20240329-12:00:00.000|36=8|123=Y|10=107|
8=FIX.4.4|9=76|35=5|49=FAUXCHANGE|56=CLIENT|34=8|52=20240329-12:00:00.000|58=session ended|10=054|
8=FIX.4.4|9=101|35=3|49=FAUXCHANGE|56=CLIENT|34=9|52=20240329-12:00:00.000|45=3|371=54|373=1|58=required tag missing|10=053|
8=FIX.4.4|9=232|35=8|49=FAUXCHANGE|56=CLIENT|34=10|52=20240329-12:00:00.000|37=run-1:BTC:1:0|17=run-1:BTC:1:10|150=8|39=8|55=BTC-20240329-50000-C|54=2|151=0|14=0|527=0|60=20240329-12:00:00.000|103=6|58=client_order_id reused with a different order|10=160|
8=FIX.4.4|9=147|35=9|49=FAUXCHANGE|56=CLIENT|34=11|52=20240329-12:00:00.000|37=run-1:BTC:0:0|11=conf-cxl-unknown|41=never-placed|39=8|434=1|102=1|58=unknown order|10=059|
8=FIX.4.4|9=129|35=Y|49=FAUXCHANGE|56=CLIENT|34=12|52=20240329-12:00:00.000|262=MDR-TRADE|281=8|58=only Bid/Offer market data is served over FIX|10=241|
8=FIX.4.4|9=105|35=j|49=FAUXCHANGE|56=CLIENT|34=13|52=20240329-12:00:00.000|45=2|372=R|380=3|58=unsupported message type|10=093|
