8=FIX.4.4|9=196|35=8|49=FAUXCHANGE|56=CLIENT|34=12|52=20240329-12:00:00.000|37=run-1:BTC:7:0|17=run-1:BTC:7:0|150=F|39=2|55=BTC-20240329-50000-C|54=1|151=0|14=3|32=3|31=500.05|44=500.05|527=7|12=-0.10|13=3|851=1|10=199|
