8=FIX.4.4|9=68|35=0|49=CLIENT|56=FAUXCHANGE|34=2|52=20240329-12:00:00.000|112=TR-1|10=051|
