8=FIX.4.4|9=99|35=A|49=CLIENT|56=FAUXCHANGE|34=1|52=20240329-12:00:00.000|98=0|108=30|553=acct-1|554=s3cr3t|141=Y|10=137|
