8=FIX.4.4|9=76|35=5|49=FAUXCHANGE|56=CLIENT|34=9|52=20240329-12:00:00.000|58=session ended|10=055|
