8=FIX.4.4|9=153|35=W|49=FAUXCHANGE|56=CLIENT|34=16|52=20240329-12:00:00.000|262=MDR-1|55=BTC-20240329-50000-C|83=42|268=2|269=0|270=499.95|271=10|269=1|270=500.05|271=7|10=113|
