8=FIX.4.4|9=188|35=X|49=FAUXCHANGE|56=CLIENT|34=17|52=20240329-12:00:00.000|262=MDR-1|83=43|268=2|279=1|269=0|55=BTC-20240329-50000-C|270=499.95|271=4|279=2|269=1|55=BTC-20240329-50000-C|270=500.05|271=0|10=065|
