8=FIX.4.4|9=136|35=V|49=CLIENT|56=FAUXCHANGE|34=15|52=20240329-12:00:00.000|262=MDR-1|263=1|264=0|267=3|269=0|269=1|269=2|146=1|55=BTC-20240329-50000-C|10=048|
