8=FIX.4.4|9=104|35=Y|49=FAUXCHANGE|56=CLIENT|34=18|52=20240329-12:00:00.000|262=MDR-1|281=0|58=unsupported subscription|10=191|
