8=FIX.4.4|9=159|35=D|49=CLIENT|56=FAUXCHANGE|34=7|52=20240329-12:00:00.000|11=CLIENT-1|1=acct-1|55=BTC-20240329-50000-C|54=1|60=20240329-12:00:00.000|40=2|44=500.05|38=3|59=1|10=145|
