8=FIX.4.4|9=112|35=F|49=CLIENT|56=FAUXCHANGE|34=8|52=20240329-12:00:00.000|41=CLIENT-1|11=CLIENT-2|55=BTC-20240329-50000-C|54=1|10=203|
