8=FIX.4.4|9=135|35=9|49=FAUXCHANGE|56=CLIENT|34=13|52=20240329-12:00:00.000|37=run-1:BTC:7:0|11=CLIENT-2|41=CLIENT-1|39=4|434=1|102=1|58=unknown order|10=107|
