8=FIX.4.4|9=114|35=r|49=FAUXCHANGE|56=CLIENT|34=14|52=20240329-12:00:00.000|531=7|533=2|534=2|535=run-1:BTC:7:0|535=run-1:BTC:8:0|10=024|
