8=FIX.4.4|9=102|35=q|49=CLIENT|56=FAUXCHANGE|34=10|52=20240329-12:00:00.000|11=CLIENT-4|530=1|55=BTC-20240329-50000-C|10=143|
