8=FIX.4.4|9=132|35=G|49=CLIENT|56=FAUXCHANGE|34=9|52=20240329-12:00:00.000|41=CLIENT-1|11=CLIENT-3|55=BTC-20240329-50000-C|54=1|40=2|44=501.00|38=5|10=076|
