8=FIX.4.4|9=101|35=H|49=CLIENT|56=FAUXCHANGE|34=11|52=20240329-12:00:00.000|37=run-1:BTC:7:0|55=BTC-20240329-50000-C|10=232|
