8=FIX.4.4|9=94|35=3|49=FAUXCHANGE|56=CLIENT|34=6|52=20240329-12:00:00.000|45=7|371=44|373=1|58=missing price|10=102|
