8=FIX.4.4|9=68|35=2|49=CLIENT|56=FAUXCHANGE|34=4|52=20240329-12:00:00.000|7=5|16=0|10=224|
