8=FIX.4.4|9=71|35=4|49=FAUXCHANGE|56=CLIENT|34=5|52=20240329-12:00:00.000|36=42|123=Y|10=152|
