8=FIX.4.4|9=68|35=1|49=FAUXCHANGE|56=CLIENT|34=3|52=20240329-12:00:00.000|112=TR-1|10=053|
