8=FIX.4.2|9=54|35=0|49=CLIENT|56=VENUE|34=1|52=20240329-12:00:00.000|10=254|