8=FIX.4.4|9=59|35=0|49=CLIENT|56=VENUE|34=1|34=2|52=20240329-12:00:00.000|10=220|