8=FIX.4.4|9=118|35=V|49=CLIENT|56=VENUE|34=1|52=20240329-12:00:00.000|262=MDR-1|263=1|264=0|267=1|269=0|146=2|55=BTC-20240329-50000-C|10=130|