8=FIX.4.4|9=139|35=D|49=CLIENT|56=VENUE|34=1|52=20240329-12:00:00.000|11=nodside|55=BTC-20240329-50000-C|60=20240329-12:00:00.000|40=2|44=500.00|38=1|59=1|10=180|