8=FIX.4.4|9=165|35=D|49=CLIENT|56=VENUE|34=1|52=20240329-12:00:00.000|40=2|44=99999999999999999999999999999999.99|11=cl-1|55=BTC-20240329-50000-C|54=1|60=20240329-12:00:00.000|38=1|10=146|