8=FIX.4.4|9=262145|35=0|