8=FIX.4.4|9=108|35=D|49=CLIENT|56=VENUE|34=1|52=20240329-12:00:00.000|55=BTC-20240329-50000-C|146=1|55=BTC-20240329-50000-C|10=250|