8=FIX.4.4|9=54|35=0|49=CLIENT|56=VENUE|34=