8=FIX.4.4|9=55|35=ZZ|49=CLIENT|56=VENUE|34=1|52=20240329-12:00:00.000|10=133|